{
  "_format": "hh-sol-artifact-1",
  "contractName": "Staker",
  "sourceName": "contracts/Staker.sol",
  "abi": [
    {
      "inputs": [
        {
          "internalType": "address",
          "name": "exampleExternalContractAddress",
          "type": "address"
        }
      ],
      "stateMutability": "nonpayable",
      "type": "constructor"
    },
    {
      "anonymous": false,
      "inputs": [
        {
          "indexed": false,
          "internalType": "address",
          "name": "",
          "type": "address"
        },
        {
          "indexed": false,
          "internalType": "uint256",
          "name": "",
          "type": "uint256"
        }
      ],
      "name": "Stake",
      "type": "event"
    },
    {
      "inputs": [
        {
          "internalType": "address",
          "name": "",
          "type": "address"
        }
      ],
      "name": "balances",
      "outputs": [
        {
          "internalType": "uint256",
          "name": "",
          "type": "uint256"
        }
      ],
      "stateMutability": "view",
      "type": "function"
    },
    {
      "inputs": [],
      "name": "deadline",
      "outputs": [
        {
          "internalType": "uint256",
          "name": "",
          "type": "uint256"
        }
      ],
      "stateMutability": "view",
      "type": "function"
    },
    {
      "inputs": [],
      "name": "exampleExternalContract",
      "outputs": [
        {
          "internalType": "contract ExampleExternalContract",
          "name": "",
          "type": "address"
        }
      ],
      "stateMutability": "view",
      "type": "function"
    },
    {
      "inputs": [],
      "name": "execute",
      "outputs": [],
      "stateMutability": "nonpayable",
      "type": "function"
    },
    {
      "inputs": [],
      "name": "stake",
      "outputs": [],
      "stateMutability": "payable",
      "type": "function"
    },
    {
      "inputs": [],
      "name": "threshold",
      "outputs": [
        {
          "internalType": "uint256",
          "name": "",
          "type": "uint256"
        }
      ],
      "stateMutability": "view",
      "type": "function"
    },
    {
      "inputs": [],
      "name": "timeLeft",
      "outputs": [
        {
          "internalType": "uint256",
          "name": "",
          "type": "uint256"
        }
      ],
      "stateMutability": "view",
      "type": "function"
    },
    {
      "inputs": [
        {
          "internalType": "address payable",
          "name": "user",
          "type": "address"
        }
      ],
      "name": "withdraw",
      "outputs": [],
      "stateMutability": "nonpayable",
      "type": "function"
    }
  ],
  "bytecode": "0x6080604052601e42016002556003805460ff1916905534801561002157600080fd5b506040516107b53803806107b58339818101604052602081101561004457600080fd5b5051600080546001600160a01b039092166001600160a01b031990921691909117905561073f806100766000396000f3fe60806040526004361061007b5760003560e01c806342cde4e81161004e57806342cde4e8146100f957806351cff8d91461010e57806361461954146101415780639f75f227146101565761007b565b80631300a6d11461008057806327e235e3146100a757806329dcb0cf146100da5780633a4b66f1146100ef575b600080fd5b34801561008c57600080fd5b50610095610187565b60408051918252519081900360200190f35b3480156100b357600080fd5b50610095600480360360208110156100ca57600080fd5b50356001600160a01b03166101a5565b3480156100e657600080fd5b506100956101b7565b6100f76101bd565b005b34801561010557600080fd5b506100956102d8565b34801561011a57600080fd5b506100f76004803603602081101561013157600080fd5b50356001600160a01b03166102e4565b34801561014d57600080fd5b506100f76104e1565b34801561016257600080fd5b5061016b6106a0565b604080516001600160a01b039092168252519081900360200190f35b600060025442101561019d5742600254036101a0565b60005b905090565b60016020526000908152604090205481565b60025481565b6000809054906101000a90046001600160a01b03166001600160a01b0316639d9a7fe96040518163ffffffff1660e01b815260040160206040518083038186803b15801561020a57600080fd5b505afa15801561021e573d6000803e3d6000fd5b505050506040513d602081101561023457600080fd5b505115610285576040805162461bcd60e51b815260206004820152601a6024820152795374616b696e6720616c726561647920636f6d706c657465642160301b604482015290519081900360640190fd5b3360008181526001602090815260409182902080543490810190915582519384529083015280517febedb8b3c678666e7f36970bc8f57abf6d8fa2e828c0da91ea5b75bf68ed101a9281900390910190a1565b670de0b6b3a764000081565b6002544210156103255760405162461bcd60e51b81526004018080602001828103825260368152602001806106d46036913960400191505060405180910390fd5b670de0b6b3a76400004710610376576040805162461bcd60e51b81526020600482015260126024820152715468726573686f6c6420726561636865642160701b604482015290519081900360640190fd5b6000809054906101000a90046001600160a01b03166001600160a01b0316639d9a7fe96040518163ffffffff1660e01b815260040160206040518083038186803b1580156103c357600080fd5b505afa1580156103d7573d6000803e3d6000fd5b505050506040513d60208110156103ed57600080fd5b50511561043e576040805162461bcd60e51b815260206004820152601a6024820152795374616b696e6720616c726561647920636f6d706c657465642160301b604482015290519081900360640190fd5b6001600160a01b0381166000908152600160205260409020546104925760405162461bcd60e51b81526004018080602001828103825260248152602001806106b06024913960400191505060405180910390fd5b6001600160a01b038116600081815260016020526040808220805490839055905190929183156108fc02918491818181858888f193505050501580156104dc573d6000803e3d6000fd5b505050565b6002544210156105225760405162461bcd60e51b81526004018080602001828103825260368152602001806106d46036913960400191505060405180910390fd5b670de0b6b3a7640000471015610578576040805162461bcd60e51b81526020600482015260166024820152755468726573686f6c64206e6f7420726561636865642160501b604482015290519081900360640190fd5b6000809054906101000a90046001600160a01b03166001600160a01b0316639d9a7fe96040518163ffffffff1660e01b815260040160206040518083038186803b1580156105c557600080fd5b505afa1580156105d9573d6000803e3d6000fd5b505050506040513d60208110156105ef57600080fd5b505115610640576040805162461bcd60e51b815260206004820152601a6024820152795374616b696e6720616c726561647920636f6d706c657465642160301b604482015290519081900360640190fd5b600080546040805163522e117760e01b815290516001600160a01b039092169263522e1177924792600480820193929182900301818588803b15801561068557600080fd5b505af1158015610699573d6000803e3d6000fd5b5050505050565b6000546001600160a01b03168156fe5573657227732062616c616e636520697320302c2063616e27742077697468647261772e446561644c696e65206e6f7420726561636865642c2063616e27742065786563757465207374616b65206f7220776974686472617721a264697066735822122089435e8b3ee06ba7f131f2d2d34dd14285261814f28efef990466d9e524ead6564736f6c63430006070033",
  "linkReferences": {},
  "deployedLinkReferences": {}
}